{
  "contractName": "IdentityContract",
  "abi": [
    {
      "inputs": [],
      "stateMutability": "nonpayable",
      "type": "constructor"
    },
    {
      "anonymous": false,
      "inputs": [
        {
          "indexed": false,
          "internalType": "address",
          "name": "addr",
          "type": "address"
        },
        {
          "indexed": false,
          "internalType": "string",
          "name": "url",
          "type": "string"
        },
        {
          "indexed": false,
          "internalType": "string",
          "name": "name",
          "type": "string"
        }
      ],
      "name": "NodeJoined",
      "type": "event"
    },
    {
      "anonymous": false,
      "inputs": [
        {
          "indexed": false,
          "internalType": "address",
          "name": "addr",
          "type": "address"
        },
        {
          "indexed": false,
          "internalType": "string",
          "name": "url",
          "type": "string"
        },
        {
          "indexed": false,
          "internalType": "string",
          "name": "name",
          "type": "string"
        }
      ],
      "name": "NodeLeaved",
      "type": "event"
    },
    {
      "anonymous": false,
      "inputs": [
        {
          "indexed": false,
          "internalType": "address",
          "name": "addr",
          "type": "address"
        },
        {
          "indexed": false,
          "internalType": "string",
          "name": "url",
          "type": "string"
        },
        {
          "indexed": false,
          "internalType": "string",
          "name": "name",
          "type": "string"
        }
      ],
      "name": "NodeUpdated",
      "type": "event"
    },
    {
      "anonymous": false,
      "inputs": [
        {
          "indexed": true,
          "internalType": "address",
          "name": "oldOwner",
          "type": "address"
        },
        {
          "indexed": true,
          "internalType": "address",
          "name": "newOwner",
          "type": "address"
        }
      ],
      "name": "OwnerSet",
      "type": "event"
    },
    {
      "inputs": [
        {
          "internalType": "string",
          "name": "url",
          "type": "string"
        },
        {
          "internalType": "string",
          "name": "name",
          "type": "string"
        }
      ],
      "name": "join",
      "outputs": [],
      "stateMutability": "nonpayable",
      "type": "function"
    },
    {
      "inputs": [
        {
          "internalType": "string",
          "name": "url",
          "type": "string"
        }
      ],
      "name": "updateUrl",
      "outputs": [],
      "stateMutability": "nonpayable",
      "type": "function"
    },
    {
      "inputs": [
        {
          "internalType": "string",
          "name": "name",
          "type": "string"
        }
      ],
      "name": "updateName",
      "outputs": [],
      "stateMutability": "nonpayable",
      "type": "function"
    },
    {
      "inputs": [],
      "name": "leave",
      "outputs": [],
      "stateMutability": "nonpayable",
      "type": "function"
    },
    {
      "inputs": [
        {
          "internalType": "address",
          "name": "addr",
          "type": "address"
        }
      ],
      "name": "getNodeInfo",
      "outputs": [
        {
          "components": [
            {
              "internalType": "address",
              "name": "addr",
              "type": "address"
            },
            {
              "internalType": "string",
              "name": "url",
              "type": "string"
            },
            {
              "internalType": "string",
              "name": "name",
              "type": "string"
            }
          ],
          "internalType": "struct IdentityContract.Node",
          "name": "node",
          "type": "tuple"
        }
      ],
      "stateMutability": "view",
      "type": "function",
      "constant": true
    },
    {
      "inputs": [
        {
          "internalType": "uint256",
          "name": "page",
          "type": "uint256"
        },
        {
          "internalType": "uint256",
          "name": "pageSize",
          "type": "uint256"
        }
      ],
      "name": "getNodes",
      "outputs": [
        {
          "components": [
            {
              "internalType": "address",
              "name": "addr",
              "type": "address"
            },
            {
              "internalType": "string",
              "name": "url",
              "type": "string"
            },
            {
              "internalType": "string",
              "name": "name",
              "type": "string"
            }
          ],
          "internalType": "struct IdentityContract.Node[]",
          "name": "",
          "type": "tuple[]"
        },
        {
          "internalType": "uint256",
          "name": "",
          "type": "uint256"
        }
      ],
      "stateMutability": "view",
      "type": "function",
      "constant": true
    }
  ],
  "bytecode": "0x608060405234801561001057600080fd5b5060008054600160a060020a0319163390811782556040519091907f342827c97908e5e2f71151c08502a66d44b6f758e3ac2f1de95f02eb95f0a735908290a36114318061005f6000396000f3fe608060405234801561001057600080fd5b506004361061007e577c01000000000000000000000000000000000000000000000000000000006000350463038d67e8811461008357806329803b21146100ad578063582115fb146100c257806384da92a7146100e2578063d66d9e19146100f5578063f928edc2146100fd575b600080fd5b610096610091366004610ea4565b610110565b6040516100a4929190610f5d565b60405180910390f35b6100c06100bb366004611007565b6103cd565b005b6100d56100d0366004611073565b610607565b6040516100a491906110a3565b6100c06100f03660046110b6565b6107ea565b6100c06108cd565b6100c061010b3660046110b6565b610c57565b606060008083610121600187611111565b61012b9190611128565b60025490915081101561038557600254600090859061014b908490611111565b116101635760025461015e908390611111565b610165565b845b905060008167ffffffffffffffff81111561018257610182611147565b6040519080825280602002602001820160405280156101bb57816020015b6101a8610d30565b8152602001906001900390816101a05790505b50905060005b828110156103745760016000600283815481106101e0576101e0611160565b6000918252602080832090910154600160a060020a039081168452838201949094526040928301909120825160608101909352805490931682526001830180549293929184019161023090611179565b80601f016020809104026020016040519081016040528092919081815260200182805461025c90611179565b80156102a95780601f1061027e576101008083540402835291602001916102a9565b820191906000526020600020905b81548152906001019060200180831161028c57829003601f168201915b505050505081526020016002820180546102c290611179565b80601f01602080910402602001604051908101604052809291908181526020018280546102ee90611179565b801561033b5780601f106103105761010080835404028352916020019161033b565b820191906000526020600020905b81548152906001019060200180831161031e57829003601f168201915b50505050508152505082828151811061035657610356611160565b6020026020010181905250808061036c906111b7565b9150506101c1565b5060025490945092506103c6915050565b60408051600080825260208201909252906103b6565b6103a3610d30565b81526020019060019003908161039b5790505b5060025490935091506103c69050565b9250929050565b33600081815260016020526040902060020180546103ea90611179565b159050801561041f5750600160a060020a038116600090815260016020819052604090912001805461041b90611179565b1590505b6104735760405160e560020a62461bcd02815260206004820152601a60248201527f6e6f64652068617320616c7265616479206a6f696e656420696e00000000000060448201526064015b60405180910390fd5b604051806060016040528033600160a060020a0316815260200186868080601f016020809104026020016040519081016040528093929190818152602001838380828437600092019190915250505090825250604080516020601f87018190048102820181019092528581529181019190869086908190840183828082843760009201829052509390945250503381526001602081815260409092208451815473ffffffffffffffffffffffffffffffffffffffff1916600160a060020a0390911617815584830151805191945061055093928501920190610d5a565b506040820151805161056c916002840191602090910190610d5a565b5050600280546001810182556000919091527f405787fa12a823e0f2b7631cc41b3ba8828b3321ca811111fa75cd3aa3bb5ace01805473ffffffffffffffffffffffffffffffffffffffff1916339081179091556040517f26e049335acb952e44de7f01b0fd40f3bd53cfba74c61199e7654c71e2d556c192506105f8919088908890889088906111fb565b60405180910390a15050505050565b61060f610d30565b600160a060020a038216600090815260016020526040812060020180548492919061063990611179565b905011801561066d5750600160a060020a0381166000908152600160208190526040822001805461066990611179565b9050115b61068c5760405160e560020a62461bcd02815260040161046a9061123d565b600160a060020a03808416600090815260016020818152604092839020835160608101909452805490941683529083018054929392918401916106ce90611179565b80601f01602080910402602001604051908101604052809291908181526020018280546106fa90611179565b80156107475780601f1061071c57610100808354040283529160200191610747565b820191906000526020600020905b81548152906001019060200180831161072a57829003601f168201915b5050505050815260200160028201805461076090611179565b80601f016020809104026020016040519081016040528092919081815260200182805461078c90611179565b80156107d95780601f106107ae576101008083540402835291602001916107d9565b820191906000526020600020905b8154815290600101906020018083116107bc57829003601f168201915b505050505081525050915050919050565b336000818152600160205260408120600201805461080790611179565b905011801561083b5750600160a060020a0381166000908152600160208190526040822001805461083790611179565b9050115b61085a5760405160e560020a62461bcd02815260040161046a9061123d565b336000908152600160205260409020610877906002018484610dde565b503360008181526001602081905260409182902091517f8dd72b3e159c2446f32a80f24459ad76e9f8fbb74165952a01c27adb16aba725936108c0939092019087908790611317565b60405180910390a1505050565b33600081815260016020526040812060020180546108ea90611179565b905011801561091e5750600160a060020a0381166000908152600160208190526040822001805461091a90611179565b9050115b61093d5760405160e560020a62461bcd02815260040161046a9061123d565b336000908152600160208190526040822001805461095a90611179565b80601f016020809104026020016040519081016040528092919081815260200182805461098690611179565b80156109d35780601f106109a8576101008083540402835291602001916109d3565b820191906000526020600020905b8154815290600101906020018083116109b657829003601f168201915b5050336000908152600160205260408120600201805495965090949093506109fd92509050611179565b80601f0160208091040260200160405190810160405280929190818152602001828054610a2990611179565b8015610a765780601f10610a4b57610100808354040283529160200191610a76565b820191906000526020600020905b815481529060010190602001808311610a5957829003601f168201915b50503360009081526001602081905260408220805473ffffffffffffffffffffffffffffffffffffffff19168155959650909350610ab992508401905082610e52565b610ac7600283016000610e52565b5060009050805b600254811015610b2a5733600160a060020a031660028281548110610af557610af5611160565b600091825260209091200154600160a060020a03161415610b1857809150610b2a565b80610b22816111b7565b915050610ace565b50805b600254610b3c90600190611111565b811015610bd4576002610b50826001611357565b81548110610b6057610b60611160565b60009182526020909120015460028054600160a060020a039092169183908110610b8c57610b8c611160565b6000918252602090912001805473ffffffffffffffffffffffffffffffffffffffff1916600160a060020a039290921691909117905580610bcc816111b7565b915050610b2d565b506002805480610be657610be661136f565b6000828152602090208101600019908101805473ffffffffffffffffffffffffffffffffffffffff191690550190556040517fe6cce2c467e7cff22040fe784d410127854a34b9cf37b4c179f62afef96dd07d90610c4990339086908690611388565b60405180910390a150505050565b3360008181526001602052604081206002018054610c7490611179565b9050118015610ca85750600160a060020a03811660009081526001602081905260408220018054610ca490611179565b9050115b610cc75760405160e560020a62461bcd02815260040161046a9061123d565b336000908152600160208190526040909120610ce591018484610dde565b50336000818152600160205260409081902090517f8dd72b3e159c2446f32a80f24459ad76e9f8fbb74165952a01c27adb16aba725926108c0929091879187916002909101906113c6565b60405180606001604052806000600160a060020a0316815260200160608152602001606081525090565b828054610d6690611179565b90600052602060002090601f016020900481019282610d885760008555610dce565b82601f10610da157805160ff1916838001178555610dce565b82800160010185558215610dce579182015b82811115610dce578251825591602001919060010190610db3565b50610dda929150610e8f565b5090565b828054610dea90611179565b90600052602060002090601f016020900481019282610e0c5760008555610dce565b82601f10610e255782800160ff19823516178555610dce565b82800160010185558215610dce579182015b82811115610dce578235825591602001919060010190610e37565b508054610e5e90611179565b6000825580601f10610e6e575050565b601f016020900490600052602060002090810190610e8c9190610e8f565b50565b5b80821115610dda5760008155600101610e90565b60008060408385031215610eb757600080fd5b50508035926020909101359150565b6000815180845260005b81811015610eec57602081850181015186830182015201610ed0565b81811115610efe576000602083870101525b50601f01601f19169290920160200192915050565b600160a060020a0381511682526000602082015160606020850152610f3b6060850182610ec6565b905060408301518482036040860152610f548282610ec6565b95945050505050565b6000604082016040835280855180835260608501915060209250606083820286010183880160005b83811015610fb357605f19888403018552610fa1838351610f13565b94860194925090850190600101610f85565b50509290940194909452949350505050565b60008083601f840112610fd757600080fd5b50813567ffffffffffffffff811115610fef57600080fd5b6020830191508360208285010111156103c657600080fd5b6000806000806040858703121561101d57600080fd5b843567ffffffffffffffff8082111561103557600080fd5b61104188838901610fc5565b9096509450602087013591508082111561105a57600080fd5b5061106787828801610fc5565b95989497509550505050565b60006020828403121561108557600080fd5b8135600160a060020a038116811461109c57600080fd5b9392505050565b60208152600061109c6020830184610f13565b600080602083850312156110c957600080fd5b823567ffffffffffffffff8111156110e057600080fd5b6110ec85828601610fc5565b90969095509350505050565b60e060020a634e487b7102600052601160045260246000fd5b600082821015611123576111236110f8565b500390565b6000816000190483118215151615611142576111426110f8565b500290565b60e060020a634e487b7102600052604160045260246000fd5b60e060020a634e487b7102600052603260045260246000fd5b60028104600182168061118d57607f821691505b602082108114156111b15760e060020a634e487b7102600052602260045260246000fd5b50919050565b60006000198214156111cb576111cb6110f8565b5060010190565b81835281816020850137506000828201602090810191909152601f909101601f19169091010190565b600160a060020a038616815260606020820152600061121e6060830186886111d2565b82810360408401526112318185876111d2565b98975050505050505050565b60208082526016908201527f6e6f646520686173206e6f74206a6f696e656420696e00000000000000000000604082015260600190565b80546000906002810460018083168061128e57607f831692505b60208084108214156112b35760e060020a634e487b7102600052602260045260246000fd5b838852602088018280156112ce57600181146112df5761130a565b60ff1987168252828201975061130a565b60008981526020902060005b87811015611304578154848201529086019084016112eb565b83019850505b5050505050505092915050565b600160a060020a03851681526060602082015260006113396060830186611274565b828103604084015261134c8185876111d2565b979650505050505050565b6000821982111561136a5761136a6110f8565b500190565b60e060020a634e487b7102600052603160045260246000fd5b600160a060020a03841681526060602082015260006113aa6060830185610ec6565b82810360408401526113bc8185610ec6565b9695505050505050565b600160a060020a03851681526060602082015260006113e96060830185876111d2565b828103604084015261134c818561127456fea264697066735822122036166d4737708837c443114070ae43034b065f0051ed9840147a424278a3adae64736f6c634300080a0033",
  "immutableReferences": {},
  "source": "// SPDX-License-Identifier: GPL-3.0\n\npragma solidity >=0.7.0 <0.9.0;\n\ncontract IdentityContract {\n    struct Node {\n        address addr;\n        string url;\n        string name;\n    }\n\n    address private onwer;\n    mapping(address => Node) nodes;\n    address[] addrs;\n\n    // event for EVM logging\n    event OwnerSet(address indexed oldOwner, address indexed newOwner);\n    // triggered when node joined\n    event NodeJoined(address addr, string url, string name);\n    // triggered when node info updated\n    event NodeUpdated(address addr, string url, string name);\n    // triggered when node leaved\n    event NodeLeaved(address addr, string url, string name);\n\n    modifier nodeNotExists(address addr) {\n        require(\n            bytes(nodes[addr].name).length == 0 &&\n                bytes(nodes[addr].url).length == 0,\n            \"node has already joined in\"\n        );\n        _;\n    }\n\n    modifier nodeExists(address addr) {\n        require(\n            bytes(nodes[addr].name).length > 0 &&\n                bytes(nodes[addr].url).length > 0,\n            \"node has not joined in\"\n        );\n        _;\n    }\n\n    constructor() {\n        onwer = msg.sender;\n        emit OwnerSet(address(0), onwer);\n    }\n\n    function join(string calldata url, string calldata name)\n        public\n        nodeNotExists(msg.sender)\n    {\n        nodes[msg.sender] = Node({addr: msg.sender, url: url, name: name});\n        addrs.push(msg.sender);\n        emit NodeJoined(msg.sender, url, name);\n    }\n\n    function updateUrl(string calldata url) public nodeExists(msg.sender) {\n        nodes[msg.sender].url = url;\n        emit NodeUpdated(msg.sender, url, nodes[msg.sender].name);\n    }\n\n    function updateName(string calldata name) public nodeExists(msg.sender) {\n        nodes[msg.sender].name = name;\n        emit NodeUpdated(msg.sender, nodes[msg.sender].url, name);\n    }\n\n    function leave() public nodeExists(msg.sender) {\n        string memory url = nodes[msg.sender].url;\n        string memory name = nodes[msg.sender].name;\n        delete nodes[msg.sender];\n        uint256 removeIndex;\n        for (uint256 i = 0; i < addrs.length; i++) {\n            if (addrs[i] == msg.sender) {\n                removeIndex = i;\n                break;\n            }\n        }\n        for (uint256 i = removeIndex; i < addrs.length - 1; i++) {\n            addrs[i] = addrs[i + 1];\n        }\n        addrs.pop();\n        emit NodeLeaved(msg.sender, url, name);\n    }\n\n    function getNodeInfo(address addr)\n        public\n        view\n        nodeExists(addr)\n        returns (Node memory node)\n    {\n        node = nodes[addr];\n    }\n\n    function getNodes(uint256 page, uint256 pageSize)\n        public\n        view\n        returns (Node[] memory, uint256)\n    {\n        uint256 offset = (page - 1) * pageSize;\n        if (offset < addrs.length) {\n            uint256 size = addrs.length - offset > pageSize\n                ? pageSize\n                : addrs.length - offset;\n            Node[] memory result = new Node[](size);\n            for (uint256 i = 0; i < size; i++) {\n                result[i] = nodes[addrs[i]];\n            }\n            return (result, addrs.length);\n        } else {\n            return (new Node[](0), addrs.length);\n        }\n    }\n}\n",
  "sourcePath": "/home/hmiao/workspace/node/contract/contracts/Identity.sol",
  "compiler": {
    "name": "solc",
    "version": "0.8.10+commit.fc410830.Emscripten.clang"
  },
  "schemaVersion": "3.4.3",
  "updatedAt": "2022-01-05T02:54:22.251Z",
  "networkType": "ethereum",
  "devdoc": {
    "kind": "dev",
    "methods": {},
    "version": 1
  },
  "userdoc": {
    "kind": "user",
    "methods": {},
    "version": 1
  }
}