{
  "contractName": "DataHub",
  "abi": [
    {
      "inputs": [],
      "stateMutability": "nonpayable",
      "type": "constructor"
    },
    {
      "anonymous": false,
      "inputs": [
        {
          "indexed": true,
          "internalType": "address",
          "name": "owner",
          "type": "address"
        },
        {
          "indexed": false,
          "internalType": "string",
          "name": "name",
          "type": "string"
        },
        {
          "indexed": false,
          "internalType": "uint256",
          "name": "index",
          "type": "uint256"
        },
        {
          "indexed": false,
          "internalType": "bytes32",
          "name": "commitment",
          "type": "bytes32"
        }
      ],
      "name": "DataRegistered",
      "type": "event"
    },
    {
      "anonymous": false,
      "inputs": [
        {
          "indexed": true,
          "internalType": "address",
          "name": "oldOwner",
          "type": "address"
        },
        {
          "indexed": true,
          "internalType": "address",
          "name": "newOwner",
          "type": "address"
        }
      ],
      "name": "OwnerSet",
      "type": "event"
    },
    {
      "inputs": [
        {
          "internalType": "string",
          "name": "name",
          "type": "string"
        },
        {
          "internalType": "uint256",
          "name": "index",
          "type": "uint256"
        },
        {
          "internalType": "bytes32",
          "name": "commitment",
          "type": "bytes32"
        }
      ],
      "name": "register",
      "outputs": [],
      "stateMutability": "nonpayable",
      "type": "function"
    },
    {
      "inputs": [
        {
          "internalType": "address",
          "name": "addr",
          "type": "address"
        },
        {
          "internalType": "string",
          "name": "name",
          "type": "string"
        },
        {
          "internalType": "uint256",
          "name": "index",
          "type": "uint256"
        }
      ],
      "name": "getDataCommitment",
      "outputs": [
        {
          "internalType": "bytes32",
          "name": "commitment",
          "type": "bytes32"
        }
      ],
      "stateMutability": "view",
      "type": "function"
    }
  ],
  "bytecode": "0x608060405234801561001057600080fd5b50600080546001600160a01b0319163390811782556040519091907f342827c97908e5e2f71151c08502a66d44b6f758e3ac2f1de95f02eb95f0a735908290a36104368061005f6000396000f3fe608060405234801561001057600080fd5b50600436106100365760003560e01c806399a64eb11461003b578063a8fc100a14610060575b600080fd5b61004e6100493660046102ba565b610075565b60405190815260200160405180910390f35b61007361006e366004610322565b610121565b005b6001600160a01b038416600090815260016020526040808220905186918691869186916100a59085908590610373565b9081526040519081900360200190205481106100c057600080fd5b6001600160a01b0389166000908152600160205260409081902090516100e9908a908a90610373565b9081526020016040518091039020868154811061010857610108610383565b9060005260206000200154945050505050949350505050565b336000908152600160205260409081902090516101419086908690610373565b9081526040519081900360200190205482106101dd573360009081526001602052604080822090516101769087908790610373565b9081526040519081900360200190205490505b8281116101db57336000908152600160205260409081902090516101b09087908790610373565b90815260405190819003602001902080546001018155600052806101d381610399565b915050610189565b505b336000908152600160205260409081902090518291906102009087908790610373565b9081526020016040518091039020838154811061021f5761021f610383565b60009182526020909120015560405133907f899c82682eb02afd7f44906ce7eddd003121b410590fb47b9bcac6adb201f8da906102639087908790879087906103c0565b60405180910390a250505050565b60008083601f84011261028357600080fd5b50813567ffffffffffffffff81111561029b57600080fd5b6020830191508360208285010111156102b357600080fd5b9250929050565b600080600080606085870312156102d057600080fd5b84356001600160a01b03811681146102e757600080fd5b9350602085013567ffffffffffffffff81111561030357600080fd5b61030f87828801610271565b9598909750949560400135949350505050565b6000806000806060858703121561033857600080fd5b843567ffffffffffffffff81111561034f57600080fd5b61035b87828801610271565b90989097506020870135966040013595509350505050565b8183823760009101908152919050565b634e487b7160e01b600052603260045260246000fd5b6000600182016103b957634e487b7160e01b600052601160045260246000fd5b5060010190565b606081528360608201528385608083013760006080858301015260006080601f19601f87011683010190508360208301528260408301529594505050505056fea26469706673582212201bdb5d47517dc98f443b5fb6a05420fefc756069e34ead96345bb13795b44e0164736f6c634300080d0033",
  "immutableReferences": {},
  "source": "// SPDX-License-Identifier: GPL-3.0\n\npragma solidity >=0.7.0 <0.9.0;\n\ncontract DataHub {\n    address private owner;\n    event OwnerSet(address indexed oldOwner, address indexed newOwner);\n\n    mapping(address => mapping(string => bytes32[])) datahub;\n\n    event DataRegistered(\n        address indexed owner,\n        string name,\n        uint256 index,\n        bytes32 commitment\n    );\n\n    constructor() {\n        owner = msg.sender;\n        emit OwnerSet(address(0), owner);\n    }\n\n    function register(\n        string calldata name,\n        uint256 index,\n        bytes32 commitment\n    ) public {\n        if (index >= datahub[msg.sender][name].length) {\n            for (uint256 i = datahub[msg.sender][name].length; i <= index; i++) {\n                datahub[msg.sender][name].push();\n            }\n        }\n        datahub[msg.sender][name][index] = commitment;\n\n        emit DataRegistered(\n            msg.sender,\n            name,\n            index,\n            commitment\n        );\n    }\n\n    modifier dataExists(\n        address addr,\n        string calldata name,\n        uint256 index\n    ) {\n        require(index < datahub[addr][name].length);\n        _;\n    }\n\n    function getDataCommitment(\n        address addr,\n        string calldata name,\n        uint256 index\n    ) public view dataExists(addr, name, index) returns (bytes32 commitment) {\n        commitment = datahub[addr][name][index];\n    }\n\n}\n",
  "sourcePath": "/home/hmiao/workspace/node/delta-contracts/contracts/DataHub.sol",
  "compiler": {
    "name": "solc",
    "version": "0.8.13+commit.abaa5c0e.Emscripten.clang"
  },
  "schemaVersion": "3.4.7",
  "updatedAt": "2022-09-28T12:19:51.815Z",
  "devdoc": {
    "kind": "dev",
    "methods": {},
    "version": 1
  },
  "userdoc": {
    "kind": "user",
    "methods": {},
    "version": 1
  }
}