{
  "contractName": "DataHub",
  "abi": [
    {
      "inputs": [],
      "stateMutability": "nonpayable",
      "type": "constructor"
    },
    {
      "anonymous": false,
      "inputs": [
        {
          "indexed": true,
          "internalType": "address",
          "name": "owner",
          "type": "address"
        },
        {
          "indexed": false,
          "internalType": "string",
          "name": "name",
          "type": "string"
        },
        {
          "indexed": false,
          "internalType": "bytes32",
          "name": "commitment",
          "type": "bytes32"
        },
        {
          "indexed": false,
          "internalType": "uint32",
          "name": "version",
          "type": "uint32"
        }
      ],
      "name": "DataRegistered",
      "type": "event"
    },
    {
      "anonymous": false,
      "inputs": [
        {
          "indexed": true,
          "internalType": "address",
          "name": "oldOwner",
          "type": "address"
        },
        {
          "indexed": true,
          "internalType": "address",
          "name": "newOwner",
          "type": "address"
        }
      ],
      "name": "OwnerSet",
      "type": "event"
    },
    {
      "inputs": [
        {
          "internalType": "string",
          "name": "name",
          "type": "string"
        },
        {
          "internalType": "bytes32",
          "name": "commitment",
          "type": "bytes32"
        }
      ],
      "name": "register",
      "outputs": [],
      "stateMutability": "nonpayable",
      "type": "function"
    },
    {
      "inputs": [
        {
          "internalType": "address",
          "name": "addr",
          "type": "address"
        },
        {
          "internalType": "string",
          "name": "name",
          "type": "string"
        }
      ],
      "name": "getDataCommitment",
      "outputs": [
        {
          "internalType": "bytes32",
          "name": "commitment",
          "type": "bytes32"
        }
      ],
      "stateMutability": "view",
      "type": "function",
      "constant": true
    },
    {
      "inputs": [
        {
          "internalType": "address",
          "name": "addr",
          "type": "address"
        },
        {
          "internalType": "string",
          "name": "name",
          "type": "string"
        }
      ],
      "name": "getDataVersion",
      "outputs": [
        {
          "internalType": "uint32",
          "name": "version",
          "type": "uint32"
        }
      ],
      "stateMutability": "view",
      "type": "function",
      "constant": true
    }
  ],
  "bytecode": "0x608060405234801561001057600080fd5b50600080546001600160a01b0319163390811782556040519091907f342827c97908e5e2f71151c08502a66d44b6f758e3ac2f1de95f02eb95f0a735908290a36104ca8061005f6000396000f3fe608060405234801561001057600080fd5b50600436106100415760003560e01c80634f38eebb14610046578063656afdee14610073578063e61071f914610088575b600080fd5b61005961005436600461035b565b6100a9565b60405163ffffffff90911681526020015b60405180910390f35b6100866100813660046103bc565b610149565b005b61009b61009636600461035b565b61027b565b60405190815260200161006a565b6001600160a01b038316600090815260016020526040808220905185918591859185916100d99085908590610408565b9081526040519081900360200190206001015463ffffffff16116100fc57600080fd5b6001600160a01b0387166000908152600160205260409081902090516101259088908890610408565b9081526040519081900360200190206001015463ffffffff16979650505050505050565b3360009081526001602052604090819020905182919061016c9086908690610408565b90815260408051918290036020908101832093909355336000908152600193849052209061019d9086908690610408565b90815260405190819003602001902060010180546000906101c590849063ffffffff16610418565b92506101000a81548163ffffffff021916908363ffffffff160217905550336001600160a01b03167faf545cf859b99031c5605ea7d9a025967c89f7bdd86e964c849b88cb05f7a82784848460016000336001600160a01b03166001600160a01b031681526020019081526020016000208888604051610246929190610408565b9081526040519081900360200181206001015461026e9493929163ffffffff9091169061044e565b60405180910390a2505050565b6001600160a01b038316600090815260016020526040808220905185918591859185916102ab9085908590610408565b9081526040519081900360200190206001015463ffffffff16116102ce57600080fd5b6001600160a01b0387166000908152600160205260409081902090516102f79088908890610408565b90815260405190819003602001902054979650505050505050565b60008083601f84011261032457600080fd5b50813567ffffffffffffffff81111561033c57600080fd5b60208301915083602082850101111561035457600080fd5b9250929050565b60008060006040848603121561037057600080fd5b83356001600160a01b038116811461038757600080fd5b9250602084013567ffffffffffffffff8111156103a357600080fd5b6103af86828701610312565b9497909650939450505050565b6000806000604084860312156103d157600080fd5b833567ffffffffffffffff8111156103e857600080fd5b6103f486828701610312565b909790965060209590950135949350505050565b8183823760009101908152919050565b600063ffffffff80831681851680830382111561044557634e487b7160e01b600052601160045260246000fd5b01949350505050565b606081528360608201528385608083013760006080858301015260006080601f19601f870116830101905083602083015263ffffffff831660408301529594505050505056fea2646970667358221220a2c0ed9a1e8dc4291bf84b509f06584c002d574038a8fb17890186055a3c589064736f6c634300080d0033",
  "immutableReferences": {},
  "source": "// SPDX-License-Identifier: GPL-3.0\n\npragma solidity >=0.7.0 <0.9.0;\n\ncontract DataHub {\n    address private owner;\n    event OwnerSet(address indexed oldOwner, address indexed newOwner);\n\n    struct DataRecord {\n        bytes32 commitment;\n        uint32 version;\n    }\n    mapping(address => mapping(string => DataRecord)) datahub;\n\n    event DataRegistered(\n        address indexed owner,\n        string name,\n        bytes32 commitment,\n        uint32 version\n    );\n\n    constructor() {\n        owner = msg.sender;\n        emit OwnerSet(address(0), owner);\n    }\n\n    function register(string calldata name, bytes32 commitment) public {\n        datahub[msg.sender][name].commitment = commitment;\n        datahub[msg.sender][name].version += 1;\n\n        emit DataRegistered(\n            msg.sender,\n            name,\n            commitment,\n            datahub[msg.sender][name].version\n        );\n    }\n\n    modifier dataExists(address addr, string calldata name) {\n        require(datahub[addr][name].version > 0);\n        _;\n    }\n\n    function getDataCommitment(address addr, string calldata name)\n        public\n        view\n        dataExists(addr, name)\n        returns (bytes32 commitment)\n    {\n        commitment = datahub[addr][name].commitment;\n    }\n\n    function getDataVersion(address addr, string calldata name)\n        public\n        view\n        dataExists(addr, name)\n        returns (uint32 version)\n    {\n        version = datahub[addr][name].version;\n    }\n}\n",
  "sourcePath": "/home/hmiao/workspace/node/delta-contracts/contracts/DataHub.sol",
  "compiler": {
    "name": "solc",
    "version": "0.8.13+commit.abaa5c0e.Emscripten.clang"
  },
  "schemaVersion": "3.4.7",
  "updatedAt": "2022-09-08T01:51:13.088Z",
  "networkType": "ethereum",
  "devdoc": {
    "kind": "dev",
    "methods": {},
    "version": 1
  },
  "userdoc": {
    "kind": "user",
    "methods": {},
    "version": 1
  }
}