{
  "contractName": "DataHub",
  "abi": [
    {
      "inputs": [],
      "stateMutability": "nonpayable",
      "type": "constructor"
    },
    {
      "anonymous": false,
      "inputs": [
        {
          "indexed": true,
          "internalType": "address",
          "name": "owner",
          "type": "address"
        },
        {
          "indexed": false,
          "internalType": "string",
          "name": "name",
          "type": "string"
        },
        {
          "indexed": false,
          "internalType": "uint256",
          "name": "index",
          "type": "uint256"
        },
        {
          "indexed": false,
          "internalType": "bytes32",
          "name": "commitment",
          "type": "bytes32"
        }
      ],
      "name": "DataRegistered",
      "type": "event"
    },
    {
      "anonymous": false,
      "inputs": [
        {
          "indexed": true,
          "internalType": "address",
          "name": "oldOwner",
          "type": "address"
        },
        {
          "indexed": true,
          "internalType": "address",
          "name": "newOwner",
          "type": "address"
        }
      ],
      "name": "OwnerSet",
      "type": "event"
    },
    {
      "inputs": [
        {
          "internalType": "string",
          "name": "name",
          "type": "string"
        },
        {
          "internalType": "uint256",
          "name": "index",
          "type": "uint256"
        },
        {
          "internalType": "bytes32",
          "name": "commitment",
          "type": "bytes32"
        }
      ],
      "name": "register",
      "outputs": [],
      "stateMutability": "nonpayable",
      "type": "function"
    },
    {
      "inputs": [
        {
          "internalType": "address",
          "name": "addr",
          "type": "address"
        },
        {
          "internalType": "string",
          "name": "name",
          "type": "string"
        },
        {
          "internalType": "uint256",
          "name": "index",
          "type": "uint256"
        }
      ],
      "name": "getDataCommitment",
      "outputs": [
        {
          "internalType": "bytes32",
          "name": "commitment",
          "type": "bytes32"
        }
      ],
      "stateMutability": "view",
      "type": "function"
    }
  ],
  "bytecode": "0x608060405234801561001057600080fd5b50600080546001600160a01b0319163390811782556040519091907f342827c97908e5e2f71151c08502a66d44b6f758e3ac2f1de95f02eb95f0a735908290a36104c48061005f6000396000f3fe608060405234801561001057600080fd5b50600436106100365760003560e01c806399a64eb11461003b578063a8fc100a14610060575b600080fd5b61004e61004936600461034a565b610075565b60405190815260200160405180910390f35b61007361006e3660046103b2565b610121565b005b6001600160a01b038416600090815260016020526040808220905186918691869186916100a59085908590610403565b9081526040519081900360200190205481106100c057600080fd5b6001600160a01b0389166000908152600160205260409081902090516100e9908a908a90610403565b9081526020016040518091039020868154811061010857610108610413565b9060005260206000200154945050505050949350505050565b336000908152600160205260409081902090516101419086908690610403565b9081526040519081900360200190205482036101a057336000908152600160205260409081902090516101779086908690610403565b9081526040516020918190038201902080546001810182556000918252919020018190556102b4565b3360009081526001602081905260409182902091519091906101c59087908790610403565b908152604051908190036020019020546101df9190610429565b820361023857336000908152600160205260409081902090518291906102089087908790610403565b9081526020016040518091039020838154811061022757610227610413565b6000918252602090912001556102b4565b60405162461bcd60e51b815260206004820152604160248201527f596f752063616e206f6e6c792075706461746520746865206c61737420626c6f60448201527f636b206f72206372656174652061206e657720626c6f636b20616674657220696064820152601d60fa1b608482015260a40160405180910390fd5b336001600160a01b03167f899c82682eb02afd7f44906ce7eddd003121b410590fb47b9bcac6adb201f8da858585856040516102f3949392919061044e565b60405180910390a250505050565b60008083601f84011261031357600080fd5b50813567ffffffffffffffff81111561032b57600080fd5b60208301915083602082850101111561034357600080fd5b9250929050565b6000806000806060858703121561036057600080fd5b84356001600160a01b038116811461037757600080fd5b9350602085013567ffffffffffffffff81111561039357600080fd5b61039f87828801610301565b9598909750949560400135949350505050565b600080600080606085870312156103c857600080fd5b843567ffffffffffffffff8111156103df57600080fd5b6103eb87828801610301565b90989097506020870135966040013595509350505050565b8183823760009101908152919050565b634e487b7160e01b600052603260045260246000fd5b60008282101561044957634e487b7160e01b600052601160045260246000fd5b500390565b606081528360608201528385608083013760006080858301015260006080601f19601f87011683010190508360208301528260408301529594505050505056fea26469706673582212209dab995d3a71dbde2cc7bfd37074b8c5892ce5d5e8a8dd074bfabdd29107bf5864736f6c634300080d0033",
  "immutableReferences": {},
  "source": "// SPDX-License-Identifier: GPL-3.0\n\npragma solidity >=0.7.0 <0.9.0;\n\ncontract DataHub {\n    address private owner;\n    event OwnerSet(address indexed oldOwner, address indexed newOwner);\n\n    mapping(address => mapping(string => bytes32[])) datahub;\n\n    event DataRegistered(\n        address indexed owner,\n        string name,\n        uint256 index,\n        bytes32 commitment\n    );\n\n    constructor() {\n        owner = msg.sender;\n        emit OwnerSet(address(0), owner);\n    }\n\n    function register(\n        string calldata name,\n        uint256 index,\n        bytes32 commitment\n    ) public {\n        if (index == datahub[msg.sender][name].length) {\n            datahub[msg.sender][name].push(commitment);\n        } else if (index == datahub[msg.sender][name].length - 1) {\n            datahub[msg.sender][name][index] = commitment;\n        } else {\n            revert(\"You can only update the last block or create a new block after it\");\n        }\n\n        emit DataRegistered(\n            msg.sender,\n            name,\n            index,\n            commitment\n        );\n    }\n\n    modifier dataExists(\n        address addr,\n        string calldata name,\n        uint256 index\n    ) {\n        require(index < datahub[addr][name].length);\n        _;\n    }\n\n    function getDataCommitment(\n        address addr,\n        string calldata name,\n        uint256 index\n    ) public view dataExists(addr, name, index) returns (bytes32 commitment) {\n        commitment = datahub[addr][name][index];\n    }\n\n}\n",
  "sourcePath": "/home/hmiao/workspace/node/delta-contracts/contracts/DataHub.sol",
  "compiler": {
    "name": "solc",
    "version": "0.8.13+commit.abaa5c0e.Emscripten.clang"
  },
  "schemaVersion": "3.4.7",
  "updatedAt": "2022-09-21T04:30:16.052Z",
  "devdoc": {
    "kind": "dev",
    "methods": {},
    "version": 1
  },
  "userdoc": {
    "kind": "user",
    "methods": {},
    "version": 1
  }
}