{
  "contractName": "PlonkVerifier3",
  "abi": [
    {
      "inputs": [],
      "name": "q",
      "outputs": [
        {
          "internalType": "uint256",
          "name": "",
          "type": "uint256"
        }
      ],
      "stateMutability": "view",
      "type": "function",
      "constant": true
    },
    {
      "inputs": [
        {
          "internalType": "bytes",
          "name": "proof",
          "type": "bytes"
        },
        {
          "internalType": "uint256[]",
          "name": "pubSignals",
          "type": "uint256[]"
        }
      ],
      "name": "verifyProof",
      "outputs": [
        {
          "internalType": "bool",
          "name": "",
          "type": "bool"
        }
      ],
      "stateMutability": "view",
      "type": "function",
      "constant": true
    }
  ],
  "bytecode": "0x608060405234801561001057600080fd5b50611b2c806100206000396000f3fe608060405234801561001057600080fd5b50600436106100365760003560e01c80631e8e1e131461003b578063fd3ab28214610063575b600080fd5b61004e6100493660046119fe565b610086565b60405190151581526020015b60405180910390f35b610078600080516020611ab783398151915281565b60405190815260200161005a565b60006118ca565b600080600184846000805b82156100ba575092938183058581029091039350909181830290039081610098565b50505060018111156100cb57600080fd5b505060008112156100d95783015b9392505050565b60405181602084028301815160208301925060005b8284101561012657818552600080516020611ab78339815191528451830991506020850194506020840193506100f5565b61013e600080516020611ab78339815191528361008d565b91506020850394506020840393508592505b8284111561019557600080516020611ab7833981519152855183099050600080516020611ab783398151915284518309818552601f1995860195909401939150610150565b5090915250505050565b600080516020611ab783398151915281106101be576000805260206000f35b50565b6103208151146101d5576000805260206000f35b6101e361026082015161019f565b6101f161028082015161019f565b6101ff6102a082015161019f565b61020d6102c082015161019f565b61021b6102e082015161019f565b61022961030082015161019f565b6101be61032082015161019f565b60008060208501516103a085015260408501516103c085015260608501516103e0850152608085015161040085015260a085015161042085015260c085015161044085015260e085015161046085015261010085015161048085015260208301516104a0850152602080018301516104c085015260406020018301516104e08501526060602001830151610500850152608060200183015161052085015260a0602001830151610540850152600080516020611ab78339815191526101c06103a0860120069050806020850152600080516020611ab7833981519152602080860120066040850152600080516020611ab7833981519152604060e0850120066000850152600080516020611ab783398151915260c0610120850120069150816060850152600080516020611ab783398151915282820960a085015250600080516020611ab78339815191528182099050600080516020611ab78339815191528182099050600080516020611ab78339815191528182099050600080516020611ab78339815191528182099050600080516020611ab78339815191528182099050600080516020611ab78339815191528182099050600080516020611ab78339815191528182099050600080516020611ab78339815191528182099050600080516020611ab78339815191528182099050600080516020611ab78339815191528182099050600080516020611ab78339815191528182099050600080516020611ab78339815191528182099050600080516020611ab78339815191528182099050600080516020611ab78339815191528182099050600080516020611ab78339815191528182099050600080516020611ab78339815191528182099050600080516020611ab78339815191528182099050600080516020611ab78339815191528182099050600080516020611ab78339815191528182099050806080840152600080516020611ab78339815191528060018303010690508061026084015280610280840152600080516020611ab783398151915260e0610260840120068060c0850152600080516020611ab783398151915281820991508160e0850152600080516020611ab7833981519152818309915081610100850152600080516020611ab7833981519152818309915081610120850152600080516020611ab7833981519152818309915081610140850152600080516020611ab7833981519152818309610160850152505060806101e09190910120600080516020611ab783398151915290066101809091015250565b6001600080516020611ab783398151915280600080516020611ab783398151915283606086015103010662080000096102a0830152600080516020611ab7833981519152600080516020611ad783398151915282099050600080516020611ab783398151915280600080516020611ab783398151915283606086015103010662080000096102c0830152600080516020611ab7833981519152600080516020611ad783398151915282099050600080516020611ab783398151915280600080516020611ab783398151915283606086015103010662080000096102e0830152600080516020611ab7833981519152600080516020611ad783398151915282099050600080516020611ab783398151915280600080516020611ab78339815191528360608601510301066208000009610300830152600080516020611ab7833981519152600080516020611ad783398151915282099050600080516020611ab783398151915280600080516020611ab78339815191528360608601510301066208000009610320830152600080516020611ab7833981519152600080516020611ad783398151915282099050600080516020611ab783398151915280600080516020611ab78339815191528360608601510301066208000009610340830152600080516020611ab7833981519152600080516020611ad783398151915282099050600080516020611ab783398151915280600080516020611ab78339815191528360608601510301066208000009610360830152600080516020611ab7833981519152600080516020611ad783398151915282099050600080516020611ab783398151915280600080516020611ab7833981519152836060860151030106620800000961038083015261087a600961028084016100e0565b61026082015160019150600080516020611ab7833981519152816102a0850151096102a0840152600080516020611ab7833981519152600080516020611ad783398151915283099150600080516020611ab783398151915280826102c08601510983096102c0840152600080516020611ab7833981519152600080516020611ad783398151915283099150600080516020611ab783398151915280826102e08601510983096102e0840152600080516020611ab7833981519152600080516020611ad783398151915283099150600080516020611ab78339815191528082610300860151098309610300840152600080516020611ab7833981519152600080516020611ad783398151915283099150600080516020611ab78339815191528082610320860151098309610320840152600080516020611ab7833981519152600080516020611ad783398151915283099150600080516020611ab78339815191528082610340860151098309610340840152600080516020611ab7833981519152600080516020611ad783398151915283099150600080516020611ab78339815191528082610360860151098309610360840152600080516020611ab7833981519152600080516020611ad783398151915283099150600080516020611ab78339815191528082610380860151098309610380840152505050565b6000600080516020611ab783398151915280600080516020611ab783398151915260208601516102a086015109830301069050600080516020611ab783398151915280600080516020611ab783398151915260408601516102c086015109830301069050600080516020611ab783398151915280600080516020611ab783398151915260608601516102e086015109830301069050600080516020611ab783398151915280600080516020611ab7833981519152608086015161030086015109830301069050600080516020611ab783398151915280600080516020611ab783398151915260a086015161032086015109830301069050600080516020611ab783398151915280600080516020611ab783398151915260c086015161034086015109830301069050600080516020611ab783398151915280600080516020611ab783398151915260e086015161036086015109830301069050600080516020611ab783398151915280600080516020611ab783398151915261010086015161038086015109830301069050806101a0830152505050565b6000806000600080516020611ab78339815191526101a0860151610320860151089250600080516020611ab783398151915260208601516102c0860151099150600080516020611ab783398151915261026085015183089150600080516020611ab7833981519152604086015183089150600080516020611ab783398151915260208601516102e0860151099050600080516020611ab783398151915261028085015182089050600080516020611ab7833981519152604086015182089050600080516020611ab78339815191528183099150600080516020611ab783398151915260408601516102a0860151089050600080516020611ab78339815191528183099150600080516020611ab783398151915261030085015183099150600080516020611ab7833981519152600086015183099150600080516020611ab783398151915260008601516102a0870151099050600080516020611ab7833981519152600086015182099050600080516020611ab7833981519152818308915050600080516020611ab783398151915281600080516020611ab783398151915284010306915050600080516020611ab783398151915261028084015182099050806101c0840152505050565b6040518151815260208201516020820152825160408201526020830151606082015260408260808360066107d05a03fa905080610e16576000805260206000f35b505050565b6000604051835181526020840151602082015284604082015260408160608360076107d05a03fa915081610e53576000805260206000f35b825160408201526020830151606082015260408360808360066107d05a03fa91505080610e84576000805260206000f35b50505050565b600060405183815284602082015285604082015260408160608360076107d05a03fa915081610ebd576000805260206000f35b825160408201526020830151606082015260408360808360066107d05a03fa91505080610eee576000805260206000f35b5050505050565b600060405183815284602082015285604082015260408360608360076107d05a03fa91505080610eee576000805260206000f35b6101e08201610f466101e083018281518152602091820151910152565b610e16610180840151610220840183610e1b565b6000806102208401600080516020611ab783398151915260c0860151610260860151099250610fcb837f2ac330ba56541a7c433f904f1694288827566f079a140cd7f6e644deec80c4987f0e7b4a16b436d25c093f42d35d44263e2478c1378e6bb2c2953e9510ba07132584610ef5565b600080516020611ab783398151915261028085015184099250611030837f1934e49ecd2b5632fa1e819f266a0acbf0dfcb94c1bcf38edf3b1871db49482f7f11cb9e7ddae7327279269d960ad9f25abd8e0adb9928d1f75f971cf9a8ce4b2f84610e8a565b600080516020611ab783398151915260c0860151610280860151099250611099837f173d2725e4ce57d88341bc27d41f8897d20546685c5eafed25d72a9b8b9ecee17f2a9203563c29e17ca45bee488b63f6115bacad0e283241d5dfe6eaab922fe75984610e8a565b600080516020611ab783398151915260c08601516102a0860151099250611102837f0973ad427c53393c767a097ab9d44dfea7885bb5c9d91c1579bf2661bb7d1f4c7f0ab6fb99ed58ed1289a82537de910be684ffc1f43f8a5917507abc5d691bd4f384610e8a565b60c08501519250611155837f153a86ad25ca77c31cbda0ab9add4e2c7866f8648e710241fa325384d457dc177f152a1022e8414f892b40ba52ab6593e6d7ffad10a8d25afdd3c7d5d74657b4d684610e8a565b600080516020611ab783398151915260a0860151610260860151089250600080516020611ab7833981519152604086015184089250600080516020611ab783398151915260a08601516002099150600080516020611ab783398151915261028085015183089150600080516020611ab7833981519152604086015183089150600080516020611ab78339815191528284099250600080516020611ab783398151915260a08601516003099150600080516020611ab78339815191526102a085015183089150600080516020611ab7833981519152604086015183089150600080516020611ab78339815191528284099250600080516020611ab7833981519152600086015184099250600080516020611ab783398151915260c086015184099250600080516020611ab783398151915260008601516102a0870151099150600080516020611ab7833981519152600086015183099150600080516020611ab783398151915260c086015183099150600080516020611ab78339815191528284089250600080516020611ab7833981519152610180860151840892506112fe8360e0860183610e1b565b600080516020611ab78339815191526102c08501516020870151099250600080516020611ab783398151915261026085015184089250600080516020611ab7833981519152604086015184089250600080516020611ab78339815191526102e08501516020870151099150600080516020611ab783398151915261028085015183089150600080516020611ab7833981519152604086015183089150600080516020611ab78339815191528284099250600080516020611ab7833981519152600086015184099250600080516020611ab783398151915260c086015184099250600080516020611ab7833981519152602086015184099250600080516020611ab78339815191526103008501518409600080516020611ab783398151915290810306925061146e837f2c9ca37730d2b8a6f180e21094f21a55e463687666b27feaa4be74afeeb51f257f2d5bfac6d6f9586d3d1e8b081a2501f8a510cb72cf45015f66989cc48d48b42b84610e8a565b61147c610120850182610dd5565b6080850151925061149283610160860183610e1b565b600080516020611ab783398151915283840992506114b5836101a0860183610e1b565b6114c760e08601516020860183610e1b565b6114da6101008601516060860183610e1b565b6114ed61012086015160a0860183610e1b565b61153e6101408601517f24a234976251710324c29901299615fc619ce1001ff16e7d8be6f173e6d094217f062f492286e0a316ab146cb21e307c358bf720a8ace849b4c47c2625ed99879f84610e8a565b61158f6101608601517f244d51f3815c789f5e73173485ba6ee94844e739ca8946afa9f28c6a01cae0847f25b4f60eaad00ae6f5c7aaee404c3adaaca57f87786720369aecc191aa2749f984610e8a565b6101c08501519250600080516020611ab78339815191528060c08701516103208701510984089250600080516020611ab78339815191528060e08701516102608701510984089250600080516020611ab7833981519152806101008701516102808701510984089250600080516020611ab7833981519152806101208701516102a08701510984089250600080516020611ab7833981519152806101408701516102c08701510984089250600080516020611ab7833981519152806101608701516102e08701510984089250600080516020611ab783398151915280610180870151610300870151098408600080516020611ab783398151915290810306925061169d836002600184610e8a565b606085015192506116b3836101e0860183610e1b565b600080516020611ab78339815191526060860151610180870151099250600080516020611ab7833981519152600080516020611ad783398151915284099250610eee83610220860183610e1b565b60006040516101e0830151815260206101e08401015160208201527f26186a2d65ee4d2f9c9a5b91f86597d35f192cd120caf7e935d8443d1938e23d60408201527f30441fd1b5d3370482c42152a8899027716989a6996c2535bc9f7fee8aaef79e60608201527f1970ea81dd6992adfbc571effb03503adbbb6a857f578403c6c40e22d65b3c0260808201527f054793348f12c0cf5622c340573cb277586319de359ab9389778f689786b1e4860a082015261022083015160c08201526020610220840101517f30644e72e131a029b85045b68181585d97816a916871ca8d3c208c16d87cfd47817f30644e72e131a029b85045b68181585d97816a916871ca8d3c208c16d87cfd47030690508060e0830152507f198e9393920d483a7260bfb731fb5d25f1aa493335a9e71297e485b7aef312c26101008201527f1800deef121f1e76426a00665e5c4479674322d4f75edadd46debd5cd992f6ed6101208201527f090689d0585ff075ec9e99ad690c3395bc4b313370b38ef355acdadcd122975b6101408201527f12c85ea5db8c6deb4aab71808dcb408fe3d1e7690c43d37b4ce6cc0166fa7daa6101608201526020816101808360086107d05a03fa90511692915050565b6040516103a081016040526118de846101c1565b6118e9838286610237565b6118f2816105e3565b6118fc8382610a74565b6119068185610c0b565b6119108185610f29565b61191a8185610f5a565b61192381611701565b6103a0820360405280600052505060206000f35b634e487b7160e01b600052604160045260246000fd5b604051601f8201601f1916810167ffffffffffffffff8111828210171561197657611976611937565b604052919050565b600082601f83011261198f57600080fd5b8135602067ffffffffffffffff8211156119ab576119ab611937565b8160051b6119ba82820161194d565b92835284810182019282810190878511156119d457600080fd5b83870192505b848310156119f3578235825291830191908301906119da565b979650505050505050565b60008060408385031215611a1157600080fd5b823567ffffffffffffffff80821115611a2957600080fd5b818501915085601f830112611a3d57600080fd5b8135602082821115611a5157611a51611937565b611a63601f8301601f1916820161194d565b8281528882848701011115611a7757600080fd5b82828601838301376000928101820192909252909450850135915080821115611a9f57600080fd5b50611aac8582860161197e565b915050925092905056fe30644e72e131a029b85045b68181585d2833e84879b9709143e1f593f00000012260e724844bca5251829353968e4915305258418357473a5c1d597f613f6cbda264697066735822122083fb8ca2e8201a49bced4c5974f185384559dd38843f7ccf738d43d13ae5922164736f6c634300080d0033",
  "immutableReferences": {},
  "source": "// SPDX-License-Identifier: GPL-3.0\n/*\n    Copyright 2021 0KIMS association.\n\n    This file is generated with [snarkJS](https://github.com/iden3/snarkjs).\n\n    snarkJS is a free software: you can redistribute it and/or modify it\n    under the terms of the GNU General Public License as published by\n    the Free Software Foundation, either version 3 of the License, or\n    (at your option) any later version.\n\n    snarkJS is distributed in the hope that it will be useful, but WITHOUT\n    ANY WARRANTY; without even the implied warranty of MERCHANTABILITY\n    or FITNESS FOR A PARTICULAR PURPOSE. See the GNU General Public\n    License for more details.\n\n    You should have received a copy of the GNU General Public License\n    along with snarkJS. If not, see <https://www.gnu.org/licenses/>.\n*/\n\n\npragma solidity >=0.7.0 <0.9.0;\n\ncontract PlonkVerifier3 {\n    \n    uint32 constant n =   524288;\n    uint16 constant nPublic =  8;\n    uint16 constant nLagrange = 8;\n    \n    uint256 constant Qmx = 8049082249034855461553496277350003968359739929829003548402482680003222719279;\n    uint256 constant Qmy = 11401275141395624835521281526873206564615125476805657905578425445103052605487;\n    uint256 constant Qlx = 6550213410460724735373151982106783680957637826527568355230010305865534870309;\n    uint256 constant Qly = 19342011125595154532627509134964990063074216114828922297573698803949071549592;\n    uint256 constant Qrx = 19255122342085252435721781353311215271243008947042577671628673841412223002457;\n    uint256 constant Qry = 10511243378088247041067732058201162942043328526192736332691598388749192318689;\n    uint256 constant Qox = 4846431139822809523664712206555211152797183858747332486860734167262070297843;\n    uint256 constant Qoy = 4275198844266346854204622782965162900566356498494141661359301267458631737164;\n    uint256 constant Qcx = 9572888766008340555115385580069270222689917748933972787194553025594815657174;\n    uint256 constant Qcy = 9601976452066829021812002106705867231634502269823129602683298200174202444823;\n    uint256 constant S1x = 2797423661869942199997562736488148946408546150114393901232965103945063696287;\n    uint256 constant S1y = 16569854745607775746431740940568788906469068385683184144689057058143261987873;\n    uint256 constant S2x = 17055306094270202707714426620367960622854341109275840107014018640526187121145;\n    uint256 constant S2y = 16419875379329981791092484609275198237714156346112241548394425979586290049156;\n    uint256 constant S3x = 20516592066437363359580313386871405088407063937187850357194742761782730339371;\n    uint256 constant S3y = 20178521677799005010535532246956263561178465885281899701458201425597684850469;\n    uint256 constant k1 = 2;\n    uint256 constant k2 = 3;\n    uint256 constant X2x1 = 21831381940315734285607113342023901060522397560371972897001948545212302161822;\n    uint256 constant X2x2 = 17231025384763736816414546592865244497437017442647097510447326538965263639101;\n    uint256 constant X2y1 = 2388026358213174446665280700919698872609886601280537296205114254867301080648;\n    uint256 constant X2y2 = 11507326595632554467052522095592665270651932854513688777769618397986436103170;\n    \n    uint256 public constant q = 21888242871839275222246405745257275088548364400416034343698204186575808495617;\n    uint256 constant qf = 21888242871839275222246405745257275088696311157297823662689037894645226208583;\n    uint256 constant w1 = 15549849457946371566896172786938980432421851627449396898353380550861104573629;    \n    \n    uint256 constant G1x = 1;\n    uint256 constant G1y = 2;\n    uint256 constant G2x1 = 10857046999023057135944570762232829481370756359578518086990519993285655852781;\n    uint256 constant G2x2 = 11559732032986387107991004021392285783925812861821192530917403151452391805634;\n    uint256 constant G2y1 = 8495653923123431417604973247489272438418190587263600148770280649306958101930;\n    uint256 constant G2y2 = 4082367875863433681332203403145435568316851327593401208105741076214120093531;\n    uint16 constant pA = 32;\n    uint16 constant pB = 96;\n    uint16 constant pC = 160;\n    uint16 constant pZ = 224;\n    uint16 constant pT1 = 288;\n    uint16 constant pT2 = 352;\n    uint16 constant pT3 = 416;\n    uint16 constant pWxi = 480;\n    uint16 constant pWxiw = 544;\n    uint16 constant pEval_a = 608;\n    uint16 constant pEval_b = 640;\n    uint16 constant pEval_c = 672;\n    uint16 constant pEval_s1 = 704;\n    uint16 constant pEval_s2 = 736;\n    uint16 constant pEval_zw = 768;\n    uint16 constant pEval_r = 800;\n    \n    uint16 constant pAlpha = 0;\n    uint16 constant pBeta = 32;\n    uint16 constant pGamma = 64;\n    uint16 constant pXi = 96;\n    uint16 constant pXin = 128;\n    uint16 constant pBetaXi = 160;\n    uint16 constant pV1 = 192;\n    uint16 constant pV2 = 224;\n    uint16 constant pV3 = 256;\n    uint16 constant pV4 = 288;\n    uint16 constant pV5 = 320;\n    uint16 constant pV6 = 352;\n    uint16 constant pU = 384;\n    uint16 constant pPl = 416;\n    uint16 constant pEval_t = 448;\n    uint16 constant pA1 = 480;\n    uint16 constant pB1 = 544;\n    uint16 constant pZh = 608;\n    uint16 constant pZhInv = 640;\n    \n    uint16 constant pEval_l1 = 672;\n    \n    uint16 constant pEval_l2 = 704;\n    \n    uint16 constant pEval_l3 = 736;\n    \n    uint16 constant pEval_l4 = 768;\n    \n    uint16 constant pEval_l5 = 800;\n    \n    uint16 constant pEval_l6 = 832;\n    \n    uint16 constant pEval_l7 = 864;\n    \n    uint16 constant pEval_l8 = 896;\n    \n    \n    \n    uint16 constant lastMem = 928;\n\n    function verifyProof(bytes memory proof, uint[] memory pubSignals) public view returns (bool) {\n        assembly {\n            /////////\n            // Computes the inverse using the extended euclidean algorithm\n            /////////\n            function inverse(a, q) -> inv {\n                let t := 0     \n                let newt := 1\n                let r := q     \n                let newr := a\n                let quotient\n                let aux\n                \n                for { } newr { } {\n                    quotient := sdiv(r, newr)\n                    aux := sub(t, mul(quotient, newt))\n                    t:= newt\n                    newt:= aux\n                    \n                    aux := sub(r,mul(quotient, newr))\n                    r := newr\n                    newr := aux\n                }\n                \n                if gt(r, 1) { revert(0,0) }\n                if slt(t, 0) { t:= add(t, q) }\n\n                inv := t\n            }\n            \n            ///////\n            // Computes the inverse of an array of values\n            // See https://vitalik.ca/general/2018/07/21/starks_part_3.html in section where explain fields operations\n            //////\n            function inverseArray(pVals, n) {\n    \n                let pAux := mload(0x40)     // Point to the next free position\n                let pIn := pVals\n                let lastPIn := add(pVals, mul(n, 32))  // Read n elemnts\n                let acc := mload(pIn)       // Read the first element\n                pIn := add(pIn, 32)         // Point to the second element\n                let inv\n    \n                \n                for { } lt(pIn, lastPIn) { \n                    pAux := add(pAux, 32) \n                    pIn := add(pIn, 32)\n                } \n                {\n                    mstore(pAux, acc)\n                    acc := mulmod(acc, mload(pIn), q)\n                }\n                acc := inverse(acc, q)\n                \n                // At this point pAux pint to the next free position we substract 1 to point to the last used\n                pAux := sub(pAux, 32)\n                // pIn points to the n+1 element, we substract to point to n\n                pIn := sub(pIn, 32)\n                lastPIn := pVals  // We don't process the first element \n                for { } gt(pIn, lastPIn) { \n                    pAux := sub(pAux, 32) \n                    pIn := sub(pIn, 32)\n                } \n                {\n                    inv := mulmod(acc, mload(pAux), q)\n                    acc := mulmod(acc, mload(pIn), q)\n                    mstore(pIn, inv)\n                }\n                // pIn points to first element, we just set it.\n                mstore(pIn, acc)\n            }\n            \n            function checkField(v) {\n                if iszero(lt(v, q)) {\n                    mstore(0, 0)\n                    return(0,0x20)\n                }\n            }\n            \n            function checkInput(pProof) {\n                if iszero(eq(mload(pProof), 800 )) {\n                    mstore(0, 0)\n                    return(0,0x20)\n                }\n                checkField(mload(add(pProof, pEval_a)))\n                checkField(mload(add(pProof, pEval_b)))\n                checkField(mload(add(pProof, pEval_c)))\n                checkField(mload(add(pProof, pEval_s1)))\n                checkField(mload(add(pProof, pEval_s2)))\n                checkField(mload(add(pProof, pEval_zw)))\n                checkField(mload(add(pProof, pEval_r)))\n\n                // Points are checked in the point operations precompiled smart contracts\n            }\n            \n            function calculateChallanges(pProof, pMem, pPublic) {\n            \n                let a\n                let b\n\n                \n                mstore( add(pMem, 928 ), mload( add( pPublic, 32)))\n                \n                mstore( add(pMem, 960 ), mload( add( pPublic, 64)))\n                \n                mstore( add(pMem, 992 ), mload( add( pPublic, 96)))\n                \n                mstore( add(pMem, 1024 ), mload( add( pPublic, 128)))\n                \n                mstore( add(pMem, 1056 ), mload( add( pPublic, 160)))\n                \n                mstore( add(pMem, 1088 ), mload( add( pPublic, 192)))\n                \n                mstore( add(pMem, 1120 ), mload( add( pPublic, 224)))\n                \n                mstore( add(pMem, 1152 ), mload( add( pPublic, 256)))\n                \n                mstore( add(pMem, 1184 ), mload( add( pProof, pA)))\n                mstore( add(pMem, 1216 ), mload( add( pProof, add(pA,32))))\n                mstore( add(pMem, 1248 ), mload( add( pProof, add(pA,64))))\n                mstore( add(pMem, 1280 ), mload( add( pProof, add(pA,96))))\n                mstore( add(pMem, 1312 ), mload( add( pProof, add(pA,128))))\n                mstore( add(pMem, 1344 ), mload( add( pProof, add(pA,160))))\n                \n                b := mod(keccak256(add(pMem, lastMem), 448), q) \n                mstore( add(pMem, pBeta), b)\n                mstore( add(pMem, pGamma), mod(keccak256(add(pMem, pBeta), 32), q))\n                mstore( add(pMem, pAlpha), mod(keccak256(add(pProof, pZ), 64), q))\n                \n                a := mod(keccak256(add(pProof, pT1), 192), q)\n                mstore( add(pMem, pXi), a)\n                mstore( add(pMem, pBetaXi), mulmod(b, a, q))\n                \n                a:= mulmod(a, a, q)\n                \n                a:= mulmod(a, a, q)\n                \n                a:= mulmod(a, a, q)\n                \n                a:= mulmod(a, a, q)\n                \n                a:= mulmod(a, a, q)\n                \n                a:= mulmod(a, a, q)\n                \n                a:= mulmod(a, a, q)\n                \n                a:= mulmod(a, a, q)\n                \n                a:= mulmod(a, a, q)\n                \n                a:= mulmod(a, a, q)\n                \n                a:= mulmod(a, a, q)\n                \n                a:= mulmod(a, a, q)\n                \n                a:= mulmod(a, a, q)\n                \n                a:= mulmod(a, a, q)\n                \n                a:= mulmod(a, a, q)\n                \n                a:= mulmod(a, a, q)\n                \n                a:= mulmod(a, a, q)\n                \n                a:= mulmod(a, a, q)\n                \n                a:= mulmod(a, a, q)\n                \n                mstore( add(pMem, pXin), a)\n                a:= mod(add(sub(a, 1),q), q)\n                mstore( add(pMem, pZh), a)\n                mstore( add(pMem, pZhInv), a)  // We will invert later together with lagrange pols\n                \n                let v1 := mod(keccak256(add(pProof, pEval_a), 224), q)\n                mstore( add(pMem, pV1), v1)\n                a := mulmod(v1, v1, q)\n                mstore( add(pMem, pV2), a)\n                a := mulmod(a, v1, q)\n                mstore( add(pMem, pV3), a)\n                a := mulmod(a, v1, q)\n                mstore( add(pMem, pV4), a)\n                a := mulmod(a, v1, q)\n                mstore( add(pMem, pV5), a)\n                a := mulmod(a, v1, q)\n                mstore( add(pMem, pV6), a)\n                \n                mstore( add(pMem, pU), mod(keccak256(add(pProof, pWxi), 128), q))\n            }\n            \n            function calculateLagrange(pMem) {\n\n                let w := 1                \n                \n                mstore(\n                    add(pMem, pEval_l1), \n                    mulmod(\n                        n, \n                        mod(\n                            add(\n                                sub(\n                                    mload(add(pMem, pXi)), \n                                    w\n                                ), \n                                q\n                            ),\n                            q\n                        ), \n                        q\n                    )\n                )\n                \n                w := mulmod(w, w1, q)\n                \n                \n                mstore(\n                    add(pMem, pEval_l2), \n                    mulmod(\n                        n, \n                        mod(\n                            add(\n                                sub(\n                                    mload(add(pMem, pXi)), \n                                    w\n                                ), \n                                q\n                            ),\n                            q\n                        ), \n                        q\n                    )\n                )\n                \n                w := mulmod(w, w1, q)\n                \n                \n                mstore(\n                    add(pMem, pEval_l3), \n                    mulmod(\n                        n, \n                        mod(\n                            add(\n                                sub(\n                                    mload(add(pMem, pXi)), \n                                    w\n                                ), \n                                q\n                            ),\n                            q\n                        ), \n                        q\n                    )\n                )\n                \n                w := mulmod(w, w1, q)\n                \n                \n                mstore(\n                    add(pMem, pEval_l4), \n                    mulmod(\n                        n, \n                        mod(\n                            add(\n                                sub(\n                                    mload(add(pMem, pXi)), \n                                    w\n                                ), \n                                q\n                            ),\n                            q\n                        ), \n                        q\n                    )\n                )\n                \n                w := mulmod(w, w1, q)\n                \n                \n                mstore(\n                    add(pMem, pEval_l5), \n                    mulmod(\n                        n, \n                        mod(\n                            add(\n                                sub(\n                                    mload(add(pMem, pXi)), \n                                    w\n                                ), \n                                q\n                            ),\n                            q\n                        ), \n                        q\n                    )\n                )\n                \n                w := mulmod(w, w1, q)\n                \n                \n                mstore(\n                    add(pMem, pEval_l6), \n                    mulmod(\n                        n, \n                        mod(\n                            add(\n                                sub(\n                                    mload(add(pMem, pXi)), \n                                    w\n                                ), \n                                q\n                            ),\n                            q\n                        ), \n                        q\n                    )\n                )\n                \n                w := mulmod(w, w1, q)\n                \n                \n                mstore(\n                    add(pMem, pEval_l7), \n                    mulmod(\n                        n, \n                        mod(\n                            add(\n                                sub(\n                                    mload(add(pMem, pXi)), \n                                    w\n                                ), \n                                q\n                            ),\n                            q\n                        ), \n                        q\n                    )\n                )\n                \n                w := mulmod(w, w1, q)\n                \n                \n                mstore(\n                    add(pMem, pEval_l8), \n                    mulmod(\n                        n, \n                        mod(\n                            add(\n                                sub(\n                                    mload(add(pMem, pXi)), \n                                    w\n                                ), \n                                q\n                            ),\n                            q\n                        ), \n                        q\n                    )\n                )\n                \n                \n                \n                inverseArray(add(pMem, pZhInv), 9 )\n                \n                let zh := mload(add(pMem, pZh))\n                w := 1\n                \n                \n                mstore(\n                    add(pMem, pEval_l1 ), \n                    mulmod(\n                        mload(add(pMem, pEval_l1 )),\n                        zh,\n                        q\n                    )\n                )\n                \n                \n                w := mulmod(w, w1, q)\n                \n                \n                \n                mstore(\n                    add(pMem, pEval_l2), \n                    mulmod(\n                        w,\n                        mulmod(\n                            mload(add(pMem, pEval_l2)),\n                            zh,\n                            q\n                        ),\n                        q\n                    )\n                )\n                \n                \n                w := mulmod(w, w1, q)\n                \n                \n                \n                mstore(\n                    add(pMem, pEval_l3), \n                    mulmod(\n                        w,\n                        mulmod(\n                            mload(add(pMem, pEval_l3)),\n                            zh,\n                            q\n                        ),\n                        q\n                    )\n                )\n                \n                \n                w := mulmod(w, w1, q)\n                \n                \n                \n                mstore(\n                    add(pMem, pEval_l4), \n                    mulmod(\n                        w,\n                        mulmod(\n                            mload(add(pMem, pEval_l4)),\n                            zh,\n                            q\n                        ),\n                        q\n                    )\n                )\n                \n                \n                w := mulmod(w, w1, q)\n                \n                \n                \n                mstore(\n                    add(pMem, pEval_l5), \n                    mulmod(\n                        w,\n                        mulmod(\n                            mload(add(pMem, pEval_l5)),\n                            zh,\n                            q\n                        ),\n                        q\n                    )\n                )\n                \n                \n                w := mulmod(w, w1, q)\n                \n                \n                \n                mstore(\n                    add(pMem, pEval_l6), \n                    mulmod(\n                        w,\n                        mulmod(\n                            mload(add(pMem, pEval_l6)),\n                            zh,\n                            q\n                        ),\n                        q\n                    )\n                )\n                \n                \n                w := mulmod(w, w1, q)\n                \n                \n                \n                mstore(\n                    add(pMem, pEval_l7), \n                    mulmod(\n                        w,\n                        mulmod(\n                            mload(add(pMem, pEval_l7)),\n                            zh,\n                            q\n                        ),\n                        q\n                    )\n                )\n                \n                \n                w := mulmod(w, w1, q)\n                \n                \n                \n                mstore(\n                    add(pMem, pEval_l8), \n                    mulmod(\n                        w,\n                        mulmod(\n                            mload(add(pMem, pEval_l8)),\n                            zh,\n                            q\n                        ),\n                        q\n                    )\n                )\n                \n                \n                \n\n\n            }\n            \n            function calculatePl(pMem, pPub) {\n                let pl := 0\n                \n                 \n                pl := mod(\n                    add(\n                        sub(\n                            pl,  \n                            mulmod(\n                                mload(add(pMem, pEval_l1)),\n                                mload(add(pPub, 32)),\n                                q\n                            )\n                        ),\n                        q\n                    ),\n                    q\n                )\n                 \n                pl := mod(\n                    add(\n                        sub(\n                            pl,  \n                            mulmod(\n                                mload(add(pMem, pEval_l2)),\n                                mload(add(pPub, 64)),\n                                q\n                            )\n                        ),\n                        q\n                    ),\n                    q\n                )\n                 \n                pl := mod(\n                    add(\n                        sub(\n                            pl,  \n                            mulmod(\n                                mload(add(pMem, pEval_l3)),\n                                mload(add(pPub, 96)),\n                                q\n                            )\n                        ),\n                        q\n                    ),\n                    q\n                )\n                 \n                pl := mod(\n                    add(\n                        sub(\n                            pl,  \n                            mulmod(\n                                mload(add(pMem, pEval_l4)),\n                                mload(add(pPub, 128)),\n                                q\n                            )\n                        ),\n                        q\n                    ),\n                    q\n                )\n                 \n                pl := mod(\n                    add(\n                        sub(\n                            pl,  \n                            mulmod(\n                                mload(add(pMem, pEval_l5)),\n                                mload(add(pPub, 160)),\n                                q\n                            )\n                        ),\n                        q\n                    ),\n                    q\n                )\n                 \n                pl := mod(\n                    add(\n                        sub(\n                            pl,  \n                            mulmod(\n                                mload(add(pMem, pEval_l6)),\n                                mload(add(pPub, 192)),\n                                q\n                            )\n                        ),\n                        q\n                    ),\n                    q\n                )\n                 \n                pl := mod(\n                    add(\n                        sub(\n                            pl,  \n                            mulmod(\n                                mload(add(pMem, pEval_l7)),\n                                mload(add(pPub, 224)),\n                                q\n                            )\n                        ),\n                        q\n                    ),\n                    q\n                )\n                 \n                pl := mod(\n                    add(\n                        sub(\n                            pl,  \n                            mulmod(\n                                mload(add(pMem, pEval_l8)),\n                                mload(add(pPub, 256)),\n                                q\n                            )\n                        ),\n                        q\n                    ),\n                    q\n                )\n                \n                \n                mstore(add(pMem, pPl), pl)\n                \n\n            }\n\n            function calculateT(pProof, pMem) {\n                let t\n                let t1\n                let t2\n                t := addmod(\n                    mload(add(pProof, pEval_r)), \n                    mload(add(pMem, pPl)), \n                    q\n                )\n                \n                t1 := mulmod(\n                    mload(add(pProof, pEval_s1)),\n                    mload(add(pMem, pBeta)),\n                    q\n                )\n\n                t1 := addmod(\n                    t1,\n                    mload(add(pProof, pEval_a)),\n                    q\n                )\n                \n                t1 := addmod(\n                    t1,\n                    mload(add(pMem, pGamma)),\n                    q\n                )\n\n                t2 := mulmod(\n                    mload(add(pProof, pEval_s2)),\n                    mload(add(pMem, pBeta)),\n                    q\n                )\n\n                t2 := addmod(\n                    t2,\n                    mload(add(pProof, pEval_b)),\n                    q\n                )\n                \n                t2 := addmod(\n                    t2,\n                    mload(add(pMem, pGamma)),\n                    q\n                )\n                \n                t1 := mulmod(t1, t2, q)\n                \n                t2 := addmod(\n                    mload(add(pProof, pEval_c)),\n                    mload(add(pMem, pGamma)),\n                    q\n                )\n\n                t1 := mulmod(t1, t2, q)\n                t1 := mulmod(t1, mload(add(pProof, pEval_zw)), q)\n                t1 := mulmod(t1, mload(add(pMem, pAlpha)), q)\n                \n                t2 := mulmod(\n                    mload(add(pMem, pEval_l1)), \n                    mload(add(pMem, pAlpha)), \n                    q\n                )\n\n                t2 := mulmod(\n                    t2, \n                    mload(add(pMem, pAlpha)), \n                    q\n                )\n\n                t1 := addmod(t1, t2, q)\n                \n                t := mod(sub(add(t, q), t1), q)\n                t := mulmod(t, mload(add(pMem, pZhInv)), q)\n                \n                mstore( add(pMem, pEval_t) , t)\n\n            }\n            \n            function g1_set(pR, pP) {\n                mstore(pR, mload(pP))\n                mstore(add(pR, 32), mload(add(pP,32)))\n            }\n\n            function g1_acc(pR, pP) {\n                let mIn := mload(0x40)\n                mstore(mIn, mload(pR))\n                mstore(add(mIn,32), mload(add(pR, 32)))\n                mstore(add(mIn,64), mload(pP))\n                mstore(add(mIn,96), mload(add(pP, 32)))\n\n                let success := staticcall(sub(gas(), 2000), 6, mIn, 128, pR, 64)\n                \n                if iszero(success) {\n                    mstore(0, 0)\n                    return(0,0x20)\n                }\n            }\n\n            function g1_mulAcc(pR, pP, s) {\n                let success\n                let mIn := mload(0x40)\n                mstore(mIn, mload(pP))\n                mstore(add(mIn,32), mload(add(pP, 32)))\n                mstore(add(mIn,64), s)\n\n                success := staticcall(sub(gas(), 2000), 7, mIn, 96, mIn, 64)\n                \n                if iszero(success) {\n                    mstore(0, 0)\n                    return(0,0x20)\n                }\n                \n                mstore(add(mIn,64), mload(pR))\n                mstore(add(mIn,96), mload(add(pR, 32)))\n\n                success := staticcall(sub(gas(), 2000), 6, mIn, 128, pR, 64)\n                \n                if iszero(success) {\n                    mstore(0, 0)\n                    return(0,0x20)\n                }\n                \n            }\n\n            function g1_mulAccC(pR, x, y, s) {\n                let success\n                let mIn := mload(0x40)\n                mstore(mIn, x)\n                mstore(add(mIn,32), y)\n                mstore(add(mIn,64), s)\n\n                success := staticcall(sub(gas(), 2000), 7, mIn, 96, mIn, 64)\n                \n                if iszero(success) {\n                    mstore(0, 0)\n                    return(0,0x20)\n                }\n                \n                mstore(add(mIn,64), mload(pR))\n                mstore(add(mIn,96), mload(add(pR, 32)))\n\n                success := staticcall(sub(gas(), 2000), 6, mIn, 128, pR, 64)\n                \n                if iszero(success) {\n                    mstore(0, 0)\n                    return(0,0x20)\n                }\n            }\n\n            function g1_mulSetC(pR, x, y, s) {\n                let success\n                let mIn := mload(0x40)\n                mstore(mIn, x)\n                mstore(add(mIn,32), y)\n                mstore(add(mIn,64), s)\n\n                success := staticcall(sub(gas(), 2000), 7, mIn, 96, pR, 64)\n                \n                if iszero(success) {\n                    mstore(0, 0)\n                    return(0,0x20)\n                }\n            }\n\n\n            function calculateA1(pProof, pMem) {\n                let p := add(pMem, pA1)\n                g1_set(p, add(pProof, pWxi))\n                g1_mulAcc(p, add(pProof, pWxiw), mload(add(pMem, pU)))\n            }\n            \n            \n            function calculateB1(pProof, pMem) {\n                let s\n                let s1\n                let p := add(pMem, pB1)\n                \n                // Calculate D\n                s := mulmod( mload(add(pProof, pEval_a)), mload(add(pMem, pV1)), q)\n                g1_mulSetC(p, Qlx, Qly, s)\n\n                s := mulmod( s, mload(add(pProof, pEval_b)), q)                \n                g1_mulAccC(p, Qmx, Qmy, s)\n\n                s := mulmod( mload(add(pProof, pEval_b)), mload(add(pMem, pV1)), q)\n                g1_mulAccC(p, Qrx, Qry, s)\n                \n                s := mulmod( mload(add(pProof, pEval_c)), mload(add(pMem, pV1)), q)\n                g1_mulAccC(p, Qox, Qoy, s)\n\n                s :=mload(add(pMem, pV1))\n                g1_mulAccC(p, Qcx, Qcy, s)\n\n                s := addmod(mload(add(pProof, pEval_a)), mload(add(pMem, pBetaXi)), q)\n                s := addmod(s, mload(add(pMem, pGamma)), q)\n                s1 := mulmod(k1, mload(add(pMem, pBetaXi)), q)\n                s1 := addmod(s1, mload(add(pProof, pEval_b)), q)\n                s1 := addmod(s1, mload(add(pMem, pGamma)), q)\n                s := mulmod(s, s1, q)\n                s1 := mulmod(k2, mload(add(pMem, pBetaXi)), q)\n                s1 := addmod(s1, mload(add(pProof, pEval_c)), q)\n                s1 := addmod(s1, mload(add(pMem, pGamma)), q)\n                s := mulmod(s, s1, q)\n                s := mulmod(s, mload(add(pMem, pAlpha)), q)\n                s := mulmod(s, mload(add(pMem, pV1)), q)\n                s1 := mulmod(mload(add(pMem, pEval_l1)), mload(add(pMem, pAlpha)), q)\n                s1 := mulmod(s1, mload(add(pMem, pAlpha)), q)\n                s1 := mulmod(s1, mload(add(pMem, pV1)), q)\n                s := addmod(s, s1, q)\n                s := addmod(s, mload(add(pMem, pU)), q)\n                g1_mulAcc(p, add(pProof, pZ), s)\n                \n                s := mulmod(mload(add(pMem, pBeta)), mload(add(pProof, pEval_s1)), q)\n                s := addmod(s, mload(add(pProof, pEval_a)), q)\n                s := addmod(s, mload(add(pMem, pGamma)), q)\n                s1 := mulmod(mload(add(pMem, pBeta)), mload(add(pProof, pEval_s2)), q)\n                s1 := addmod(s1, mload(add(pProof, pEval_b)), q)\n                s1 := addmod(s1, mload(add(pMem, pGamma)), q)\n                s := mulmod(s, s1, q)\n                s := mulmod(s, mload(add(pMem, pAlpha)), q)\n                s := mulmod(s, mload(add(pMem, pV1)), q)\n                s := mulmod(s, mload(add(pMem, pBeta)), q)\n                s := mulmod(s, mload(add(pProof, pEval_zw)), q)\n                s := mod(sub(q, s), q)\n                g1_mulAccC(p, S3x, S3y, s)\n\n\n                // calculate F\n                g1_acc(p , add(pProof, pT1))\n\n                s := mload(add(pMem, pXin))\n                g1_mulAcc(p, add(pProof, pT2), s)\n                \n                s := mulmod(s, s, q)\n                g1_mulAcc(p, add(pProof, pT3), s)\n                \n                g1_mulAcc(p, add(pProof, pA), mload(add(pMem, pV2)))\n                g1_mulAcc(p, add(pProof, pB), mload(add(pMem, pV3)))\n                g1_mulAcc(p, add(pProof, pC), mload(add(pMem, pV4)))\n                g1_mulAccC(p, S1x, S1y, mload(add(pMem, pV5)))\n                g1_mulAccC(p, S2x, S2y, mload(add(pMem, pV6)))\n                \n                // calculate E\n                s := mload(add(pMem, pEval_t))\n                s := addmod(s, mulmod(mload(add(pProof, pEval_r)), mload(add(pMem, pV1)), q), q)\n                s := addmod(s, mulmod(mload(add(pProof, pEval_a)), mload(add(pMem, pV2)), q), q)\n                s := addmod(s, mulmod(mload(add(pProof, pEval_b)), mload(add(pMem, pV3)), q), q)\n                s := addmod(s, mulmod(mload(add(pProof, pEval_c)), mload(add(pMem, pV4)), q), q)\n                s := addmod(s, mulmod(mload(add(pProof, pEval_s1)), mload(add(pMem, pV5)), q), q)\n                s := addmod(s, mulmod(mload(add(pProof, pEval_s2)), mload(add(pMem, pV6)), q), q)\n                s := addmod(s, mulmod(mload(add(pProof, pEval_zw)), mload(add(pMem, pU)), q), q)\n                s := mod(sub(q, s), q)\n                g1_mulAccC(p, G1x, G1y, s)\n                \n                \n                // Last part of B\n                s := mload(add(pMem, pXi))\n                g1_mulAcc(p, add(pProof, pWxi), s)\n\n                s := mulmod(mload(add(pMem, pU)), mload(add(pMem, pXi)), q)\n                s := mulmod(s, w1, q)\n                g1_mulAcc(p, add(pProof, pWxiw), s)\n\n            }\n            \n            function checkPairing(pMem) -> isOk {\n                let mIn := mload(0x40)\n                mstore(mIn, mload(add(pMem, pA1)))\n                mstore(add(mIn,32), mload(add(add(pMem, pA1), 32)))\n                mstore(add(mIn,64), X2x2)\n                mstore(add(mIn,96), X2x1)\n                mstore(add(mIn,128), X2y2)\n                mstore(add(mIn,160), X2y1)\n                mstore(add(mIn,192), mload(add(pMem, pB1)))\n                let s := mload(add(add(pMem, pB1), 32))\n                s := mod(sub(qf, s), qf)\n                mstore(add(mIn,224), s)\n                mstore(add(mIn,256), G2x2)\n                mstore(add(mIn,288), G2x1)\n                mstore(add(mIn,320), G2y2)\n                mstore(add(mIn,352), G2y1)\n                \n                let success := staticcall(sub(gas(), 2000), 8, mIn, 384, mIn, 0x20)\n                \n                isOk := and(success, mload(mIn))\n            }\n            \n            let pMem := mload(0x40)\n            mstore(0x40, add(pMem, lastMem))\n            \n            checkInput(proof)\n            calculateChallanges(proof, pMem, pubSignals)\n            calculateLagrange(pMem)\n            calculatePl(pMem, pubSignals)\n            calculateT(proof, pMem)\n            calculateA1(proof, pMem)\n            calculateB1(proof, pMem)\n            let isValid := checkPairing(pMem)\n            \n            mstore(0x40, sub(pMem, lastMem))\n            mstore(0, isValid)\n            return(0,0x20)\n        }\n        \n    }\n}\n",
  "sourcePath": "/home/hmiao/workspace/node/delta-contracts/contracts/PlonkVerifier3.sol",
  "compiler": {
    "name": "solc",
    "version": "0.8.13+commit.abaa5c0e.Emscripten.clang"
  },
  "schemaVersion": "3.4.7",
  "updatedAt": "2022-09-21T06:49:26.749Z",
  "networkType": "ethereum",
  "devdoc": {
    "kind": "dev",
    "methods": {},
    "version": 1
  },
  "userdoc": {
    "kind": "user",
    "methods": {},
    "version": 1
  }
}